{
	"BlockCred.sol": {
		"FaceBlock": {
			"abi": [
				{
					"anonymous": false,
					"inputs": [
						{
							"indexed": true,
							"internalType": "uint256",
							"name": "id",
							"type": "uint256"
						},
						{
							"indexed": false,
							"internalType": "string",
							"name": "imageHash",
							"type": "string"
						},
						{
							"indexed": false,
							"internalType": "string",
							"name": "credential",
							"type": "string"
						},
						{
							"indexed": true,
							"internalType": "address",
							"name": "owner",
							"type": "address"
						}
					],
					"name": "CredentialStored",
					"type": "event"
				},
				{
					"inputs": [],
					"name": "credentialCount",
					"outputs": [
						{
							"internalType": "uint256",
							"name": "",
							"type": "uint256"
						}
					],
					"stateMutability": "view",
					"type": "function"
				},
				{
					"inputs": [
						{
							"internalType": "uint256",
							"name": "",
							"type": "uint256"
						}
					],
					"name": "credentials",
					"outputs": [
						{
							"internalType": "string",
							"name": "imageHash",
							"type": "string"
						},
						{
							"internalType": "string",
							"name": "credential",
							"type": "string"
						},
						{
							"internalType": "address",
							"name": "owner",
							"type": "address"
						}
					],
					"stateMutability": "view",
					"type": "function"
				},
				{
					"inputs": [
						{
							"internalType": "uint256",
							"name": "_id",
							"type": "uint256"
						}
					],
					"name": "getCredential",
					"outputs": [
						{
							"internalType": "string",
							"name": "",
							"type": "string"
						},
						{
							"internalType": "string",
							"name": "",
							"type": "string"
						},
						{
							"internalType": "address",
							"name": "",
							"type": "address"
						}
					],
					"stateMutability": "view",
					"type": "function"
				},
				{
					"inputs": [
						{
							"internalType": "string",
							"name": "_imageHash",
							"type": "string"
						},
						{
							"internalType": "string",
							"name": "_credential",
							"type": "string"
						}
					],
					"name": "storeCredential",
					"outputs": [],
					"stateMutability": "nonpayable",
					"type": "function"
				}
			],
			"devdoc": {
				"kind": "dev",
				"methods": {},
				"version": 1
			},
			"evm": {
				"assembly": "    /* \"BlockCred.sol\":57:1213  contract FaceBlock {... */\n  mstore(0x40, 0x80)\n  callvalue\n  dup1\n  iszero\n  tag_1\n  jumpi\n  0x00\n  dup1\n  revert\ntag_1:\n  pop\n  dataSize(sub_0)\n  dup1\n  dataOffset(sub_0)\n  0x00\n  codecopy\n  0x00\n  return\nstop\n\nsub_0: assembly {\n        /* \"BlockCred.sol\":57:1213  contract FaceBlock {... */\n      mstore(0x40, 0x80)\n      callvalue\n      dup1\n      iszero\n      tag_1\n      jumpi\n      0x00\n      dup1\n      revert\n    tag_1:\n      pop\n      jumpi(tag_2, lt(calldatasize, 0x04))\n      shr(0xe0, calldataload(0x00))\n      dup1\n      0x720f0194\n      eq\n      tag_3\n      jumpi\n      dup1\n      0x8dd18d2d\n      eq\n      tag_4\n      jumpi\n      dup1\n      0xcd0e35b9\n      eq\n      tag_5\n      jumpi\n      dup1\n      0xe0574e3f\n      eq\n      tag_6\n      jumpi\n    tag_2:\n      0x00\n      dup1\n      revert\n        /* \"BlockCred.sol\":459:988  function storeCredential(string memory _imageHash, string memory _credential) public {... */\n    tag_3:\n      tag_7\n      0x04\n      dup1\n      calldatasize\n      sub\n      dup2\n      add\n      swap1\n      tag_8\n      swap2\n      swap1\n      tag_9\n      jump\t// in\n    tag_8:\n      tag_10\n      jump\t// in\n    tag_7:\n      stop\n        /* \"BlockCred.sol\":995:1211  function getCredential(uint256 _id) public view returns (string memory, string memory, address) {... */\n    tag_4:\n      tag_11\n      0x04\n      dup1\n      calldatasize\n      sub\n      dup2\n      add\n      swap1\n      tag_12\n      swap2\n      swap1\n      tag_13\n      jump\t// in\n    tag_12:\n      tag_14\n      jump\t// in\n    tag_11:\n      mload(0x40)\n      tag_15\n      swap4\n      swap3\n      swap2\n      swap1\n      tag_16\n      jump\t// in\n    tag_15:\n      mload(0x40)\n      dup1\n      swap2\n      sub\n      swap1\n      return\n        /* \"BlockCred.sol\":313:343  uint256 public credentialCount */\n    tag_5:\n      tag_17\n      tag_18\n      jump\t// in\n    tag_17:\n      mload(0x40)\n      tag_19\n      swap2\n      swap1\n      tag_20\n      jump\t// in\n    tag_19:\n      mload(0x40)\n      dup1\n      swap2\n      sub\n      swap1\n      return\n        /* \"BlockCred.sol\":258:307  mapping(uint256 => Credential) public credentials */\n    tag_6:\n      tag_21\n      0x04\n      dup1\n      calldatasize\n      sub\n      dup2\n      add\n      swap1\n      tag_22\n      swap2\n      swap1\n      tag_13\n      jump\t// in\n    tag_22:\n      tag_23\n      jump\t// in\n    tag_21:\n      mload(0x40)\n      tag_24\n      swap4\n      swap3\n      swap2\n      swap1\n      tag_16\n      jump\t// in\n    tag_24:\n      mload(0x40)\n      dup1\n      swap2\n      sub\n      swap1\n      return\n        /* \"BlockCred.sol\":459:988  function storeCredential(string memory _imageHash, string memory _credential) public {... */\n    tag_10:\n        /* \"BlockCred.sol\":608:609  0 */\n      0x00\n        /* \"BlockCred.sol\":587:597  _imageHash */\n      dup3\n        /* \"BlockCred.sol\":581:605  bytes(_imageHash).length */\n      mload\n        /* \"BlockCred.sol\":581:609  bytes(_imageHash).length > 0 */\n      gt\n        /* \"BlockCred.sol\":573:640  require(bytes(_imageHash).length > 0, \"Image hash cannot be empty\") */\n      tag_26\n      jumpi\n      mload(0x40)\n      0x08c379a000000000000000000000000000000000000000000000000000000000\n      dup2\n      mstore\n      0x04\n      add\n      tag_27\n      swap1\n      tag_28\n      jump\t// in\n    tag_27:\n      mload(0x40)\n      dup1\n      swap2\n      sub\n      swap1\n      revert\n    tag_26:\n        /* \"BlockCred.sol\":682:683  0 */\n      0x00\n        /* \"BlockCred.sol\":660:671  _credential */\n      dup2\n        /* \"BlockCred.sol\":654:679  bytes(_credential).length */\n      mload\n        /* \"BlockCred.sol\":654:683  bytes(_credential).length > 0 */\n      gt\n        /* \"BlockCred.sol\":646:714  require(bytes(_credential).length > 0, \"Credential cannot be empty\") */\n      tag_29\n      jumpi\n      mload(0x40)\n      0x08c379a000000000000000000000000000000000000000000000000000000000\n      dup2\n      mstore\n      0x04\n      add\n      tag_30\n      swap1\n      tag_31\n      jump\t// in\n    tag_30:\n      mload(0x40)\n      dup1\n      swap2\n      sub\n      swap1\n      revert\n    tag_29:\n        /* \"BlockCred.sol\":780:827  Credential(_imageHash, _credential, msg.sender) */\n      mload(0x40)\n      dup1\n      0x60\n      add\n      0x40\n      mstore\n      dup1\n        /* \"BlockCred.sol\":791:801  _imageHash */\n      dup4\n        /* \"BlockCred.sol\":780:827  Credential(_imageHash, _credential, msg.sender) */\n      dup2\n      mstore\n      0x20\n      add\n        /* \"BlockCred.sol\":803:814  _credential */\n      dup3\n        /* \"BlockCred.sol\":780:827  Credential(_imageHash, _credential, msg.sender) */\n      dup2\n      mstore\n      0x20\n      add\n        /* \"BlockCred.sol\":816:826  msg.sender */\n      caller\n        /* \"BlockCred.sol\":780:827  Credential(_imageHash, _credential, msg.sender) */\n      0xffffffffffffffffffffffffffffffffffffffff\n      and\n      dup2\n      mstore\n      pop\n        /* \"BlockCred.sol\":749:760  credentials */\n      0x00\n        /* \"BlockCred.sol\":749:777  credentials[credentialCount] */\n      dup1\n        /* \"BlockCred.sol\":761:776  credentialCount */\n      sload(0x01)\n        /* \"BlockCred.sol\":749:777  credentials[credentialCount] */\n      dup2\n      mstore\n      0x20\n      add\n      swap1\n      dup2\n      mstore\n      0x20\n      add\n      0x00\n      keccak256\n        /* \"BlockCred.sol\":749:827  credentials[credentialCount] = Credential(_imageHash, _credential, msg.sender) */\n      0x00\n      dup3\n      add\n      mload\n      dup2\n      0x00\n      add\n      swap1\n      dup1\n      mload\n      swap1\n      0x20\n      add\n      swap1\n      tag_32\n      swap3\n      swap2\n      swap1\n      tag_33\n      jump\t// in\n    tag_32:\n      pop\n      0x20\n      dup3\n      add\n      mload\n      dup2\n      0x01\n      add\n      swap1\n      dup1\n      mload\n      swap1\n      0x20\n      add\n      swap1\n      tag_34\n      swap3\n      swap2\n      swap1\n      tag_33\n      jump\t// in\n    tag_34:\n      pop\n      0x40\n      dup3\n      add\n      mload\n      dup2\n      0x02\n      add\n      exp(0x0100, 0x00)\n      dup2\n      sload\n      dup2\n      0xffffffffffffffffffffffffffffffffffffffff\n      mul\n      not\n      and\n      swap1\n      dup4\n      0xffffffffffffffffffffffffffffffffffffffff\n      and\n      mul\n      or\n      swap1\n      sstore\n      pop\n      swap1\n      pop\n      pop\n        /* \"BlockCred.sol\":916:926  msg.sender */\n      caller\n        /* \"BlockCred.sol\":857:927  CredentialStored(credentialCount, _imageHash, _credential, msg.sender) */\n      0xffffffffffffffffffffffffffffffffffffffff\n      and\n        /* \"BlockCred.sol\":874:889  credentialCount */\n      sload(0x01)\n        /* \"BlockCred.sol\":857:927  CredentialStored(credentialCount, _imageHash, _credential, msg.sender) */\n      0x02a1796e76849dec92af90888bf07569638328d6bf2b37fe6cab1e79cc29ce37\n        /* \"BlockCred.sol\":891:901  _imageHash */\n      dup5\n        /* \"BlockCred.sol\":903:914  _credential */\n      dup5\n        /* \"BlockCred.sol\":857:927  CredentialStored(credentialCount, _imageHash, _credential, msg.sender) */\n      mload(0x40)\n      tag_35\n      swap3\n      swap2\n      swap1\n      tag_36\n      jump\t// in\n    tag_35:\n      mload(0x40)\n      dup1\n      swap2\n      sub\n      swap1\n      log3\n        /* \"BlockCred.sol\":968:983  credentialCount */\n      0x01\n      0x00\n        /* \"BlockCred.sol\":968:985  credentialCount++ */\n      dup2\n      sload\n      dup1\n      swap3\n      swap2\n      swap1\n      tag_37\n      swap1\n      tag_38\n      jump\t// in\n    tag_37:\n      swap2\n      swap1\n      pop\n      sstore\n      pop\n        /* \"BlockCred.sol\":459:988  function storeCredential(string memory _imageHash, string memory _credential) public {... */\n      pop\n      pop\n      jump\t// out\n        /* \"BlockCred.sol\":995:1211  function getCredential(uint256 _id) public view returns (string memory, string memory, address) {... */\n    tag_14:\n        /* \"BlockCred.sol\":1052:1065  string memory */\n      0x60\n        /* \"BlockCred.sol\":1067:1080  string memory */\n      dup1\n        /* \"BlockCred.sol\":1082:1089  address */\n      0x00\n        /* \"BlockCred.sol\":1101:1123  Credential memory cred */\n      dup1\n        /* \"BlockCred.sol\":1126:1137  credentials */\n      0x00\n        /* \"BlockCred.sol\":1126:1142  credentials[_id] */\n      dup1\n        /* \"BlockCred.sol\":1138:1141  _id */\n      dup7\n        /* \"BlockCred.sol\":1126:1142  credentials[_id] */\n      dup2\n      mstore\n      0x20\n      add\n      swap1\n      dup2\n      mstore\n      0x20\n      add\n      0x00\n      keccak256\n        /* \"BlockCred.sol\":1101:1142  Credential memory cred = credentials[_id] */\n      mload(0x40)\n      dup1\n      0x60\n      add\n      0x40\n      mstore\n      swap1\n      dup2\n      0x00\n      dup3\n      add\n      dup1\n      sload\n      tag_40\n      swap1\n      tag_41\n      jump\t// in\n    tag_40:\n      dup1\n      0x1f\n      add\n      0x20\n      dup1\n      swap2\n      div\n      mul\n      0x20\n      add\n      mload(0x40)\n      swap1\n      dup2\n      add\n      0x40\n      mstore\n      dup1\n      swap3\n      swap2\n      swap1\n      dup2\n      dup2\n      mstore\n      0x20\n      add\n      dup3\n      dup1\n      sload\n      tag_42\n      swap1\n      tag_41\n      jump\t// in\n    tag_42:\n      dup1\n      iszero\n      tag_43\n      jumpi\n      dup1\n      0x1f\n      lt\n      tag_44\n      jumpi\n      0x0100\n      dup1\n      dup4\n      sload\n      div\n      mul\n      dup4\n      mstore\n      swap2\n      0x20\n      add\n      swap2\n      jump(tag_43)\n    tag_44:\n      dup3\n      add\n      swap2\n      swap1\n      0x00\n      mstore\n      keccak256(0x00, 0x20)\n      swap1\n    tag_45:\n      dup2\n      sload\n      dup2\n      mstore\n      swap1\n      0x01\n      add\n      swap1\n      0x20\n      add\n      dup1\n      dup4\n      gt\n      tag_45\n      jumpi\n      dup3\n      swap1\n      sub\n      0x1f\n      and\n      dup3\n      add\n      swap2\n    tag_43:\n      pop\n      pop\n      pop\n      pop\n      pop\n      dup2\n      mstore\n      0x20\n      add\n      0x01\n      dup3\n      add\n      dup1\n      sload\n      tag_46\n      swap1\n      tag_41\n      jump\t// in\n    tag_46:\n      dup1\n      0x1f\n      add\n      0x20\n      dup1\n      swap2\n      div\n      mul\n      0x20\n      add\n      mload(0x40)\n      swap1\n      dup2\n      add\n      0x40\n      mstore\n      dup1\n      swap3\n      swap2\n      swap1\n      dup2\n      dup2\n      mstore\n      0x20\n      add\n      dup3\n      dup1\n      sload\n      tag_47\n      swap1\n      tag_41\n      jump\t// in\n    tag_47:\n      dup1\n      iszero\n      tag_48\n      jumpi\n      dup1\n      0x1f\n      lt\n      tag_49\n      jumpi\n      0x0100\n      dup1\n      dup4\n      sload\n      div\n      mul\n      dup4\n      mstore\n      swap2\n      0x20\n      add\n      swap2\n      jump(tag_48)\n    tag_49:\n      dup3\n      add\n      swap2\n      swap1\n      0x00\n      mstore\n      keccak256(0x00, 0x20)\n      swap1\n    tag_50:\n      dup2\n      sload\n      dup2\n      mstore\n      swap1\n      0x01\n      add\n      swap1\n      0x20\n      add\n      dup1\n      dup4\n      gt\n      tag_50\n      jumpi\n      dup3\n      swap1\n      sub\n      0x1f\n      and\n      dup3\n      add\n      swap2\n    tag_48:\n      pop\n      pop\n      pop\n      pop\n      pop\n      dup2\n      mstore\n      0x20\n      add\n      0x02\n      dup3\n      add\n      0x00\n      swap1\n      sload\n      swap1\n      0x0100\n      exp\n      swap1\n      div\n      0xffffffffffffffffffffffffffffffffffffffff\n      and\n      0xffffffffffffffffffffffffffffffffffffffff\n      and\n      0xffffffffffffffffffffffffffffffffffffffff\n      and\n      dup2\n      mstore\n      pop\n      pop\n      swap1\n      pop\n        /* \"BlockCred.sol\":1160:1164  cred */\n      dup1\n        /* \"BlockCred.sol\":1160:1174  cred.imageHash */\n      0x00\n      add\n      mload\n        /* \"BlockCred.sol\":1176:1180  cred */\n      dup2\n        /* \"BlockCred.sol\":1176:1191  cred.credential */\n      0x20\n      add\n      mload\n        /* \"BlockCred.sol\":1193:1197  cred */\n      dup3\n        /* \"BlockCred.sol\":1193:1203  cred.owner */\n      0x40\n      add\n      mload\n        /* \"BlockCred.sol\":1152:1204  return (cred.imageHash, cred.credential, cred.owner) */\n      swap4\n      pop\n      swap4\n      pop\n      swap4\n      pop\n      pop\n        /* \"BlockCred.sol\":995:1211  function getCredential(uint256 _id) public view returns (string memory, string memory, address) {... */\n      swap2\n      swap4\n      swap1\n      swap3\n      pop\n      jump\t// out\n        /* \"BlockCred.sol\":313:343  uint256 public credentialCount */\n    tag_18:\n      sload(0x01)\n      dup2\n      jump\t// out\n        /* \"BlockCred.sol\":258:307  mapping(uint256 => Credential) public credentials */\n    tag_23:\n      mstore(0x20, 0x00)\n      dup1\n      0x00\n      mstore\n      keccak256(0x00, 0x40)\n      0x00\n      swap2\n      pop\n      swap1\n      pop\n      dup1\n      0x00\n      add\n      dup1\n      sload\n      tag_51\n      swap1\n      tag_41\n      jump\t// in\n    tag_51:\n      dup1\n      0x1f\n      add\n      0x20\n      dup1\n      swap2\n      div\n      mul\n      0x20\n      add\n      mload(0x40)\n      swap1\n      dup2\n      add\n      0x40\n      mstore\n      dup1\n      swap3\n      swap2\n      swap1\n      dup2\n      dup2\n      mstore\n      0x20\n      add\n      dup3\n      dup1\n      sload\n      tag_52\n      swap1\n      tag_41\n      jump\t// in\n    tag_52:\n      dup1\n      iszero\n      tag_53\n      jumpi\n      dup1\n      0x1f\n      lt\n      tag_54\n      jumpi\n      0x0100\n      dup1\n      dup4\n      sload\n      div\n      mul\n      dup4\n      mstore\n      swap2\n      0x20\n      add\n      swap2\n      jump(tag_53)\n    tag_54:\n      dup3\n      add\n      swap2\n      swap1\n      0x00\n      mstore\n      keccak256(0x00, 0x20)\n      swap1\n    tag_55:\n      dup2\n      sload\n      dup2\n      mstore\n      swap1\n      0x01\n      add\n      swap1\n      0x20\n      add\n      dup1\n      dup4\n      gt\n      tag_55\n      jumpi\n      dup3\n      swap1\n      sub\n      0x1f\n      and\n      dup3\n      add\n      swap2\n    tag_53:\n      pop\n      pop\n      pop\n      pop\n      pop\n      swap1\n      dup1\n      0x01\n      add\n      dup1\n      sload\n      tag_56\n      swap1\n      tag_41\n      jump\t// in\n    tag_56:\n      dup1\n      0x1f\n      add\n      0x20\n      dup1\n      swap2\n      div\n      mul\n      0x20\n      add\n      mload(0x40)\n      swap1\n      dup2\n      add\n      0x40\n      mstore\n      dup1\n      swap3\n      swap2\n      swap1\n      dup2\n      dup2\n      mstore\n      0x20\n      add\n      dup3\n      dup1\n      sload\n      tag_57\n      swap1\n      tag_41\n      jump\t// in\n    tag_57:\n      dup1\n      iszero\n      tag_58\n      jumpi\n      dup1\n      0x1f\n      lt\n      tag_59\n      jumpi\n      0x0100\n      dup1\n      dup4\n      sload\n      div\n      mul\n      dup4\n      mstore\n      swap2\n      0x20\n      add\n      swap2\n      jump(tag_58)\n    tag_59:\n      dup3\n      add\n      swap2\n      swap1\n      0x00\n      mstore\n      keccak256(0x00, 0x20)\n      swap1\n    tag_60:\n      dup2\n      sload\n      dup2\n      mstore\n      swap1\n      0x01\n      add\n      swap1\n      0x20\n      add\n      dup1\n      dup4\n      gt\n      tag_60\n      jumpi\n      dup3\n      swap1\n      sub\n      0x1f\n      and\n      dup3\n      add\n      swap2\n    tag_58:\n      pop\n      pop\n      pop\n      pop\n      pop\n      swap1\n      dup1\n      0x02\n      add\n      0x00\n      swap1\n      sload\n      swap1\n      0x0100\n      exp\n      swap1\n      div\n      0xffffffffffffffffffffffffffffffffffffffff\n      and\n      swap1\n      pop\n      dup4\n      jump\t// out\n    tag_33:\n      dup3\n      dup1\n      sload\n      tag_61\n      swap1\n      tag_41\n      jump\t// in\n    tag_61:\n      swap1\n      0x00\n      mstore\n      keccak256(0x00, 0x20)\n      swap1\n      0x1f\n      add\n      0x20\n      swap1\n      div\n      dup2\n      add\n      swap3\n      dup3\n      tag_63\n      jumpi\n      0x00\n      dup6\n      sstore\n      jump(tag_62)\n    tag_63:\n      dup3\n      0x1f\n      lt\n      tag_64\n      jumpi\n      dup1\n      mload\n      not(0xff)\n      and\n      dup4\n      dup1\n      add\n      or\n      dup6\n      sstore\n      jump(tag_62)\n    tag_64:\n      dup3\n      dup1\n      add\n      0x01\n      add\n      dup6\n      sstore\n      dup3\n      iszero\n      tag_62\n      jumpi\n      swap2\n      dup3\n      add\n    tag_65:\n      dup3\n      dup2\n      gt\n      iszero\n      tag_66\n      jumpi\n      dup3\n      mload\n      dup3\n      sstore\n      swap2\n      0x20\n      add\n      swap2\n      swap1\n      0x01\n      add\n      swap1\n      jump(tag_65)\n    tag_66:\n    tag_62:\n      pop\n      swap1\n      pop\n      tag_67\n      swap2\n      swap1\n      tag_68\n      jump\t// in\n    tag_67:\n      pop\n      swap1\n      jump\t// out\n    tag_68:\n    tag_69:\n      dup1\n      dup3\n      gt\n      iszero\n      tag_70\n      jumpi\n      0x00\n      dup2\n      0x00\n      swap1\n      sstore\n      pop\n      0x01\n      add\n      jump(tag_69)\n    tag_70:\n      pop\n      swap1\n      jump\t// out\n        /* \"#utility.yul\":7:351   */\n    tag_72:\n      0x00\n        /* \"#utility.yul\":110:175   */\n      tag_74\n        /* \"#utility.yul\":125:174   */\n      tag_75\n        /* \"#utility.yul\":167:173   */\n      dup5\n        /* \"#utility.yul\":125:174   */\n      tag_76\n      jump\t// in\n    tag_75:\n        /* \"#utility.yul\":110:175   */\n      tag_77\n      jump\t// in\n    tag_74:\n        /* \"#utility.yul\":101:175   */\n      swap1\n      pop\n        /* \"#utility.yul\":198:204   */\n      dup3\n        /* \"#utility.yul\":191:196   */\n      dup2\n        /* \"#utility.yul\":184:205   */\n      mstore\n        /* \"#utility.yul\":236:240   */\n      0x20\n        /* \"#utility.yul\":229:234   */\n      dup2\n        /* \"#utility.yul\":225:241   */\n      add\n        /* \"#utility.yul\":274:277   */\n      dup5\n        /* \"#utility.yul\":265:271   */\n      dup5\n        /* \"#utility.yul\":260:263   */\n      dup5\n        /* \"#utility.yul\":256:272   */\n      add\n        /* \"#utility.yul\":253:278   */\n      gt\n        /* \"#utility.yul\":250:252   */\n      iszero\n      tag_78\n      jumpi\n        /* \"#utility.yul\":291:292   */\n      0x00\n        /* \"#utility.yul\":288:289   */\n      dup1\n        /* \"#utility.yul\":281:293   */\n      revert\n        /* \"#utility.yul\":250:252   */\n    tag_78:\n        /* \"#utility.yul\":304:345   */\n      tag_79\n        /* \"#utility.yul\":338:344   */\n      dup5\n        /* \"#utility.yul\":333:336   */\n      dup3\n        /* \"#utility.yul\":328:331   */\n      dup6\n        /* \"#utility.yul\":304:345   */\n      tag_80\n      jump\t// in\n    tag_79:\n        /* \"#utility.yul\":91:351   */\n      pop\n      swap4\n      swap3\n      pop\n      pop\n      pop\n      jump\t// out\n        /* \"#utility.yul\":371:644   */\n    tag_81:\n      0x00\n        /* \"#utility.yul\":476:479   */\n      dup3\n        /* \"#utility.yul\":469:473   */\n      0x1f\n        /* \"#utility.yul\":461:467   */\n      dup4\n        /* \"#utility.yul\":457:474   */\n      add\n        /* \"#utility.yul\":453:480   */\n      slt\n        /* \"#utility.yul\":443:445   */\n      tag_83\n      jumpi\n        /* \"#utility.yul\":494:495   */\n      0x00\n        /* \"#utility.yul\":491:492   */\n      dup1\n        /* \"#utility.yul\":484:496   */\n      revert\n        /* \"#utility.yul\":443:445   */\n    tag_83:\n        /* \"#utility.yul\":534:540   */\n      dup2\n        /* \"#utility.yul\":521:541   */\n      calldataload\n        /* \"#utility.yul\":559:638   */\n      tag_84\n        /* \"#utility.yul\":634:637   */\n      dup5\n        /* \"#utility.yul\":626:632   */\n      dup3\n        /* \"#utility.yul\":619:623   */\n      0x20\n        /* \"#utility.yul\":611:617   */\n      dup7\n        /* \"#utility.yul\":607:624   */\n      add\n        /* \"#utility.yul\":559:638   */\n      tag_72\n      jump\t// in\n    tag_84:\n        /* \"#utility.yul\":550:638   */\n      swap2\n      pop\n        /* \"#utility.yul\":433:644   */\n      pop\n      swap3\n      swap2\n      pop\n      pop\n      jump\t// out\n        /* \"#utility.yul\":650:789   */\n    tag_85:\n      0x00\n        /* \"#utility.yul\":734:740   */\n      dup2\n        /* \"#utility.yul\":721:741   */\n      calldataload\n        /* \"#utility.yul\":712:741   */\n      swap1\n      pop\n        /* \"#utility.yul\":750:783   */\n      tag_87\n        /* \"#utility.yul\":777:782   */\n      dup2\n        /* \"#utility.yul\":750:783   */\n      tag_88\n      jump\t// in\n    tag_87:\n        /* \"#utility.yul\":702:789   */\n      swap3\n      swap2\n      pop\n      pop\n      jump\t// out\n        /* \"#utility.yul\":795:1428   */\n    tag_9:\n      0x00\n      dup1\n        /* \"#utility.yul\":940:942   */\n      0x40\n        /* \"#utility.yul\":928:937   */\n      dup4\n        /* \"#utility.yul\":919:926   */\n      dup6\n        /* \"#utility.yul\":915:938   */\n      sub\n        /* \"#utility.yul\":911:943   */\n      slt\n        /* \"#utility.yul\":908:910   */\n      iszero\n      tag_90\n      jumpi\n        /* \"#utility.yul\":956:957   */\n      0x00\n        /* \"#utility.yul\":953:954   */\n      dup1\n        /* \"#utility.yul\":946:958   */\n      revert\n        /* \"#utility.yul\":908:910   */\n    tag_90:\n        /* \"#utility.yul\":1027:1028   */\n      0x00\n        /* \"#utility.yul\":1016:1025   */\n      dup4\n        /* \"#utility.yul\":1012:1029   */\n      add\n        /* \"#utility.yul\":999:1030   */\n      calldataload\n        /* \"#utility.yul\":1057:1075   */\n      0xffffffffffffffff\n        /* \"#utility.yul\":1049:1055   */\n      dup2\n        /* \"#utility.yul\":1046:1076   */\n      gt\n        /* \"#utility.yul\":1043:1045   */\n      iszero\n      tag_91\n      jumpi\n        /* \"#utility.yul\":1089:1090   */\n      0x00\n        /* \"#utility.yul\":1086:1087   */\n      dup1\n        /* \"#utility.yul\":1079:1091   */\n      revert\n        /* \"#utility.yul\":1043:1045   */\n    tag_91:\n        /* \"#utility.yul\":1117:1180   */\n      tag_92\n        /* \"#utility.yul\":1172:1179   */\n      dup6\n        /* \"#utility.yul\":1163:1169   */\n      dup3\n        /* \"#utility.yul\":1152:1161   */\n      dup7\n        /* \"#utility.yul\":1148:1170   */\n      add\n        /* \"#utility.yul\":1117:1180   */\n      tag_81\n      jump\t// in\n    tag_92:\n        /* \"#utility.yul\":1107:1180   */\n      swap3\n      pop\n        /* \"#utility.yul\":970:1190   */\n      pop\n        /* \"#utility.yul\":1257:1259   */\n      0x20\n        /* \"#utility.yul\":1246:1255   */\n      dup4\n        /* \"#utility.yul\":1242:1260   */\n      add\n        /* \"#utility.yul\":1229:1261   */\n      calldataload\n        /* \"#utility.yul\":1288:1306   */\n      0xffffffffffffffff\n        /* \"#utility.yul\":1280:1286   */\n      dup2\n        /* \"#utility.yul\":1277:1307   */\n      gt\n        /* \"#utility.yul\":1274:1276   */\n      iszero\n      tag_93\n      jumpi\n        /* \"#utility.yul\":1320:1321   */\n      0x00\n        /* \"#utility.yul\":1317:1318   */\n      dup1\n        /* \"#utility.yul\":1310:1322   */\n      revert\n        /* \"#utility.yul\":1274:1276   */\n    tag_93:\n        /* \"#utility.yul\":1348:1411   */\n      tag_94\n        /* \"#utility.yul\":1403:1410   */\n      dup6\n        /* \"#utility.yul\":1394:1400   */\n      dup3\n        /* \"#utility.yul\":1383:1392   */\n      dup7\n        /* \"#utility.yul\":1379:1401   */\n      add\n        /* \"#utility.yul\":1348:1411   */\n      tag_81\n      jump\t// in\n    tag_94:\n        /* \"#utility.yul\":1338:1411   */\n      swap2\n      pop\n        /* \"#utility.yul\":1200:1421   */\n      pop\n        /* \"#utility.yul\":898:1428   */\n      swap3\n      pop\n      swap3\n      swap1\n      pop\n      jump\t// out\n        /* \"#utility.yul\":1434:1696   */\n    tag_13:\n      0x00\n        /* \"#utility.yul\":1542:1544   */\n      0x20\n        /* \"#utility.yul\":1530:1539   */\n      dup3\n        /* \"#utility.yul\":1521:1528   */\n      dup5\n        /* \"#utility.yul\":1517:1540   */\n      sub\n        /* \"#utility.yul\":1513:1545   */\n      slt\n        /* \"#utility.yul\":1510:1512   */\n      iszero\n      tag_96\n      jumpi\n        /* \"#utility.yul\":1558:1559   */\n      0x00\n        /* \"#utility.yul\":1555:1556   */\n      dup1\n        /* \"#utility.yul\":1548:1560   */\n      revert\n        /* \"#utility.yul\":1510:1512   */\n    tag_96:\n        /* \"#utility.yul\":1601:1602   */\n      0x00\n        /* \"#utility.yul\":1626:1679   */\n      tag_97\n        /* \"#utility.yul\":1671:1678   */\n      dup5\n        /* \"#utility.yul\":1662:1668   */\n      dup3\n        /* \"#utility.yul\":1651:1660   */\n      dup6\n        /* \"#utility.yul\":1647:1669   */\n      add\n        /* \"#utility.yul\":1626:1679   */\n      tag_85\n      jump\t// in\n    tag_97:\n        /* \"#utility.yul\":1616:1679   */\n      swap2\n      pop\n        /* \"#utility.yul\":1572:1689   */\n      pop\n        /* \"#utility.yul\":1500:1696   */\n      swap3\n      swap2\n      pop\n      pop\n      jump\t// out\n        /* \"#utility.yul\":1702:1820   */\n    tag_98:\n        /* \"#utility.yul\":1789:1813   */\n      tag_100\n        /* \"#utility.yul\":1807:1812   */\n      dup2\n        /* \"#utility.yul\":1789:1813   */\n      tag_101\n      jump\t// in\n    tag_100:\n        /* \"#utility.yul\":1784:1787   */\n      dup3\n        /* \"#utility.yul\":1777:1814   */\n      mstore\n        /* \"#utility.yul\":1767:1820   */\n      pop\n      pop\n      jump\t// out\n        /* \"#utility.yul\":1826:2190   */\n    tag_102:\n      0x00\n        /* \"#utility.yul\":1942:1981   */\n      tag_104\n        /* \"#utility.yul\":1975:1980   */\n      dup3\n        /* \"#utility.yul\":1942:1981   */\n      tag_105\n      jump\t// in\n    tag_104:\n        /* \"#utility.yul\":1997:2068   */\n      tag_106\n        /* \"#utility.yul\":2061:2067   */\n      dup2\n        /* \"#utility.yul\":2056:2059   */\n      dup6\n        /* \"#utility.yul\":1997:2068   */\n      tag_107\n      jump\t// in\n    tag_106:\n        /* \"#utility.yul\":1990:2068   */\n      swap4\n      pop\n        /* \"#utility.yul\":2077:2129   */\n      tag_108\n        /* \"#utility.yul\":2122:2128   */\n      dup2\n        /* \"#utility.yul\":2117:2120   */\n      dup6\n        /* \"#utility.yul\":2110:2114   */\n      0x20\n        /* \"#utility.yul\":2103:2108   */\n      dup7\n        /* \"#utility.yul\":2099:2115   */\n      add\n        /* \"#utility.yul\":2077:2129   */\n      tag_109\n      jump\t// in\n    tag_108:\n        /* \"#utility.yul\":2154:2183   */\n      tag_110\n        /* \"#utility.yul\":2176:2182   */\n      dup2\n        /* \"#utility.yul\":2154:2183   */\n      tag_111\n      jump\t// in\n    tag_110:\n        /* \"#utility.yul\":2149:2152   */\n      dup5\n        /* \"#utility.yul\":2145:2184   */\n      add\n        /* \"#utility.yul\":2138:2184   */\n      swap2\n      pop\n        /* \"#utility.yul\":1918:2190   */\n      pop\n      swap3\n      swap2\n      pop\n      pop\n      jump\t// out\n        /* \"#utility.yul\":2196:2520   */\n    tag_112:\n      0x00\n        /* \"#utility.yul\":2359:2426   */\n      tag_114\n        /* \"#utility.yul\":2423:2425   */\n      0x1a\n        /* \"#utility.yul\":2418:2421   */\n      dup4\n        /* \"#utility.yul\":2359:2426   */\n      tag_107\n      jump\t// in\n    tag_114:\n        /* \"#utility.yul\":2352:2426   */\n      swap2\n      pop\n        /* \"#utility.yul\":2456:2484   */\n      0x496d61676520686173682063616e6e6f7420626520656d707479000000000000\n        /* \"#utility.yul\":2452:2453   */\n      0x00\n        /* \"#utility.yul\":2447:2450   */\n      dup4\n        /* \"#utility.yul\":2443:2454   */\n      add\n        /* \"#utility.yul\":2436:2485   */\n      mstore\n        /* \"#utility.yul\":2511:2513   */\n      0x20\n        /* \"#utility.yul\":2506:2509   */\n      dup3\n        /* \"#utility.yul\":2502:2514   */\n      add\n        /* \"#utility.yul\":2495:2514   */\n      swap1\n      pop\n        /* \"#utility.yul\":2342:2520   */\n      swap2\n      swap1\n      pop\n      jump\t// out\n        /* \"#utility.yul\":2526:2850   */\n    tag_115:\n      0x00\n        /* \"#utility.yul\":2689:2756   */\n      tag_117\n        /* \"#utility.yul\":2753:2755   */\n      0x1a\n        /* \"#utility.yul\":2748:2751   */\n      dup4\n        /* \"#utility.yul\":2689:2756   */\n      tag_107\n      jump\t// in\n    tag_117:\n        /* \"#utility.yul\":2682:2756   */\n      swap2\n      pop\n        /* \"#utility.yul\":2786:2814   */\n      0x43726564656e7469616c2063616e6e6f7420626520656d707479000000000000\n        /* \"#utility.yul\":2782:2783   */\n      0x00\n        /* \"#utility.yul\":2777:2780   */\n      dup4\n        /* \"#utility.yul\":2773:2784   */\n      add\n        /* \"#utility.yul\":2766:2815   */\n      mstore\n        /* \"#utility.yul\":2841:2843   */\n      0x20\n        /* \"#utility.yul\":2836:2839   */\n      dup3\n        /* \"#utility.yul\":2832:2844   */\n      add\n        /* \"#utility.yul\":2825:2844   */\n      swap1\n      pop\n        /* \"#utility.yul\":2672:2850   */\n      swap2\n      swap1\n      pop\n      jump\t// out\n        /* \"#utility.yul\":2856:2974   */\n    tag_118:\n        /* \"#utility.yul\":2943:2967   */\n      tag_120\n        /* \"#utility.yul\":2961:2966   */\n      dup2\n        /* \"#utility.yul\":2943:2967   */\n      tag_121\n      jump\t// in\n    tag_120:\n        /* \"#utility.yul\":2938:2941   */\n      dup3\n        /* \"#utility.yul\":2931:2968   */\n      mstore\n        /* \"#utility.yul\":2921:2974   */\n      pop\n      pop\n      jump\t// out\n        /* \"#utility.yul\":2980:3494   */\n    tag_36:\n      0x00\n        /* \"#utility.yul\":3179:3181   */\n      0x40\n        /* \"#utility.yul\":3168:3177   */\n      dup3\n        /* \"#utility.yul\":3164:3182   */\n      add\n        /* \"#utility.yul\":3156:3182   */\n      swap1\n      pop\n        /* \"#utility.yul\":3228:3237   */\n      dup2\n        /* \"#utility.yul\":3222:3226   */\n      dup2\n        /* \"#utility.yul\":3218:3238   */\n      sub\n        /* \"#utility.yul\":3214:3215   */\n      0x00\n        /* \"#utility.yul\":3203:3212   */\n      dup4\n        /* \"#utility.yul\":3199:3216   */\n      add\n        /* \"#utility.yul\":3192:3239   */\n      mstore\n        /* \"#utility.yul\":3256:3334   */\n      tag_123\n        /* \"#utility.yul\":3329:3333   */\n      dup2\n        /* \"#utility.yul\":3320:3326   */\n      dup6\n        /* \"#utility.yul\":3256:3334   */\n      tag_102\n      jump\t// in\n    tag_123:\n        /* \"#utility.yul\":3248:3334   */\n      swap1\n      pop\n        /* \"#utility.yul\":3381:3390   */\n      dup2\n        /* \"#utility.yul\":3375:3379   */\n      dup2\n        /* \"#utility.yul\":3371:3391   */\n      sub\n        /* \"#utility.yul\":3366:3368   */\n      0x20\n        /* \"#utility.yul\":3355:3364   */\n      dup4\n        /* \"#utility.yul\":3351:3369   */\n      add\n        /* \"#utility.yul\":3344:3392   */\n      mstore\n        /* \"#utility.yul\":3409:3487   */\n      tag_124\n        /* \"#utility.yul\":3482:3486   */\n      dup2\n        /* \"#utility.yul\":3473:3479   */\n      dup5\n        /* \"#utility.yul\":3409:3487   */\n      tag_102\n      jump\t// in\n    tag_124:\n        /* \"#utility.yul\":3401:3487   */\n      swap1\n      pop\n        /* \"#utility.yul\":3146:3494   */\n      swap4\n      swap3\n      pop\n      pop\n      pop\n      jump\t// out\n        /* \"#utility.yul\":3500:4124   */\n    tag_16:\n      0x00\n        /* \"#utility.yul\":3727:3729   */\n      0x60\n        /* \"#utility.yul\":3716:3725   */\n      dup3\n        /* \"#utility.yul\":3712:3730   */\n      add\n        /* \"#utility.yul\":3704:3730   */\n      swap1\n      pop\n        /* \"#utility.yul\":3776:3785   */\n      dup2\n        /* \"#utility.yul\":3770:3774   */\n      dup2\n        /* \"#utility.yul\":3766:3786   */\n      sub\n        /* \"#utility.yul\":3762:3763   */\n      0x00\n        /* \"#utility.yul\":3751:3760   */\n      dup4\n        /* \"#utility.yul\":3747:3764   */\n      add\n        /* \"#utility.yul\":3740:3787   */\n      mstore\n        /* \"#utility.yul\":3804:3882   */\n      tag_126\n        /* \"#utility.yul\":3877:3881   */\n      dup2\n        /* \"#utility.yul\":3868:3874   */\n      dup7\n        /* \"#utility.yul\":3804:3882   */\n      tag_102\n      jump\t// in\n    tag_126:\n        /* \"#utility.yul\":3796:3882   */\n      swap1\n      pop\n        /* \"#utility.yul\":3929:3938   */\n      dup2\n        /* \"#utility.yul\":3923:3927   */\n      dup2\n        /* \"#utility.yul\":3919:3939   */\n      sub\n        /* \"#utility.yul\":3914:3916   */\n      0x20\n        /* \"#utility.yul\":3903:3912   */\n      dup4\n        /* \"#utility.yul\":3899:3917   */\n      add\n        /* \"#utility.yul\":3892:3940   */\n      mstore\n        /* \"#utility.yul\":3957:4035   */\n      tag_127\n        /* \"#utility.yul\":4030:4034   */\n      dup2\n        /* \"#utility.yul\":4021:4027   */\n      dup6\n        /* \"#utility.yul\":3957:4035   */\n      tag_102\n      jump\t// in\n    tag_127:\n        /* \"#utility.yul\":3949:4035   */\n      swap1\n      pop\n        /* \"#utility.yul\":4045:4117   */\n      tag_128\n        /* \"#utility.yul\":4113:4115   */\n      0x40\n        /* \"#utility.yul\":4102:4111   */\n      dup4\n        /* \"#utility.yul\":4098:4116   */\n      add\n        /* \"#utility.yul\":4089:4095   */\n      dup5\n        /* \"#utility.yul\":4045:4117   */\n      tag_98\n      jump\t// in\n    tag_128:\n        /* \"#utility.yul\":3694:4124   */\n      swap5\n      swap4\n      pop\n      pop\n      pop\n      pop\n      jump\t// out\n        /* \"#utility.yul\":4130:4549   */\n    tag_28:\n      0x00\n        /* \"#utility.yul\":4334:4336   */\n      0x20\n        /* \"#utility.yul\":4323:4332   */\n      dup3\n        /* \"#utility.yul\":4319:4337   */\n      add\n        /* \"#utility.yul\":4311:4337   */\n      swap1\n      pop\n        /* \"#utility.yul\":4383:4392   */\n      dup2\n        /* \"#utility.yul\":4377:4381   */\n      dup2\n        /* \"#utility.yul\":4373:4393   */\n      sub\n        /* \"#utility.yul\":4369:4370   */\n      0x00\n        /* \"#utility.yul\":4358:4367   */\n      dup4\n        /* \"#utility.yul\":4354:4371   */\n      add\n        /* \"#utility.yul\":4347:4394   */\n      mstore\n        /* \"#utility.yul\":4411:4542   */\n      tag_130\n        /* \"#utility.yul\":4537:4541   */\n      dup2\n        /* \"#utility.yul\":4411:4542   */\n      tag_112\n      jump\t// in\n    tag_130:\n        /* \"#utility.yul\":4403:4542   */\n      swap1\n      pop\n        /* \"#utility.yul\":4301:4549   */\n      swap2\n      swap1\n      pop\n      jump\t// out\n        /* \"#utility.yul\":4555:4974   */\n    tag_31:\n      0x00\n        /* \"#utility.yul\":4759:4761   */\n      0x20\n        /* \"#utility.yul\":4748:4757   */\n      dup3\n        /* \"#utility.yul\":4744:4762   */\n      add\n        /* \"#utility.yul\":4736:4762   */\n      swap1\n      pop\n        /* \"#utility.yul\":4808:4817   */\n      dup2\n        /* \"#utility.yul\":4802:4806   */\n      dup2\n        /* \"#utility.yul\":4798:4818   */\n      sub\n        /* \"#utility.yul\":4794:4795   */\n      0x00\n        /* \"#utility.yul\":4783:4792   */\n      dup4\n        /* \"#utility.yul\":4779:4796   */\n      add\n        /* \"#utility.yul\":4772:4819   */\n      mstore\n        /* \"#utility.yul\":4836:4967   */\n      tag_132\n        /* \"#utility.yul\":4962:4966   */\n      dup2\n        /* \"#utility.yul\":4836:4967   */\n      tag_115\n      jump\t// in\n    tag_132:\n        /* \"#utility.yul\":4828:4967   */\n      swap1\n      pop\n        /* \"#utility.yul\":4726:4974   */\n      swap2\n      swap1\n      pop\n      jump\t// out\n        /* \"#utility.yul\":4980:5202   */\n    tag_20:\n      0x00\n        /* \"#utility.yul\":5111:5113   */\n      0x20\n        /* \"#utility.yul\":5100:5109   */\n      dup3\n        /* \"#utility.yul\":5096:5114   */\n      add\n        /* \"#utility.yul\":5088:5114   */\n      swap1\n      pop\n        /* \"#utility.yul\":5124:5195   */\n      tag_134\n        /* \"#utility.yul\":5192:5193   */\n      0x00\n        /* \"#utility.yul\":5181:5190   */\n      dup4\n        /* \"#utility.yul\":5177:5194   */\n      add\n        /* \"#utility.yul\":5168:5174   */\n      dup5\n        /* \"#utility.yul\":5124:5195   */\n      tag_118\n      jump\t// in\n    tag_134:\n        /* \"#utility.yul\":5078:5202   */\n      swap3\n      swap2\n      pop\n      pop\n      jump\t// out\n        /* \"#utility.yul\":5208:5491   */\n    tag_77:\n      0x00\n        /* \"#utility.yul\":5274:5276   */\n      0x40\n        /* \"#utility.yul\":5268:5277   */\n      mload\n        /* \"#utility.yul\":5258:5277   */\n      swap1\n      pop\n        /* \"#utility.yul\":5316:5320   */\n      dup2\n        /* \"#utility.yul\":5308:5314   */\n      dup2\n        /* \"#utility.yul\":5304:5321   */\n      add\n        /* \"#utility.yul\":5423:5429   */\n      dup2\n        /* \"#utility.yul\":5411:5421   */\n      dup2\n        /* \"#utility.yul\":5408:5430   */\n      lt\n        /* \"#utility.yul\":5387:5405   */\n      0xffffffffffffffff\n        /* \"#utility.yul\":5375:5385   */\n      dup3\n        /* \"#utility.yul\":5372:5406   */\n      gt\n        /* \"#utility.yul\":5369:5431   */\n      or\n        /* \"#utility.yul\":5366:5368   */\n      iszero\n      tag_136\n      jumpi\n        /* \"#utility.yul\":5434:5452   */\n      tag_137\n      tag_138\n      jump\t// in\n    tag_137:\n        /* \"#utility.yul\":5366:5368   */\n    tag_136:\n        /* \"#utility.yul\":5474:5484   */\n      dup1\n        /* \"#utility.yul\":5470:5472   */\n      0x40\n        /* \"#utility.yul\":5463:5485   */\n      mstore\n        /* \"#utility.yul\":5248:5491   */\n      pop\n      swap2\n      swap1\n      pop\n      jump\t// out\n        /* \"#utility.yul\":5497:5829   */\n    tag_76:\n      0x00\n        /* \"#utility.yul\":5649:5667   */\n      0xffffffffffffffff\n        /* \"#utility.yul\":5641:5647   */\n      dup3\n        /* \"#utility.yul\":5638:5668   */\n      gt\n        /* \"#utility.yul\":5635:5637   */\n      iszero\n      tag_140\n      jumpi\n        /* \"#utility.yul\":5671:5689   */\n      tag_141\n      tag_138\n      jump\t// in\n    tag_141:\n        /* \"#utility.yul\":5635:5637   */\n    tag_140:\n        /* \"#utility.yul\":5756:5760   */\n      0x1f\n        /* \"#utility.yul\":5752:5761   */\n      not\n        /* \"#utility.yul\":5745:5749   */\n      0x1f\n        /* \"#utility.yul\":5737:5743   */\n      dup4\n        /* \"#utility.yul\":5733:5750   */\n      add\n        /* \"#utility.yul\":5729:5762   */\n      and\n        /* \"#utility.yul\":5721:5762   */\n      swap1\n      pop\n        /* \"#utility.yul\":5817:5821   */\n      0x20\n        /* \"#utility.yul\":5811:5815   */\n      dup2\n        /* \"#utility.yul\":5807:5822   */\n      add\n        /* \"#utility.yul\":5799:5822   */\n      swap1\n      pop\n        /* \"#utility.yul\":5564:5829   */\n      swap2\n      swap1\n      pop\n      jump\t// out\n        /* \"#utility.yul\":5835:5934   */\n    tag_105:\n      0x00\n        /* \"#utility.yul\":5921:5926   */\n      dup2\n        /* \"#utility.yul\":5915:5927   */\n      mload\n        /* \"#utility.yul\":5905:5927   */\n      swap1\n      pop\n        /* \"#utility.yul\":5894:5934   */\n      swap2\n      swap1\n      pop\n      jump\t// out\n        /* \"#utility.yul\":5940:6109   */\n    tag_107:\n      0x00\n        /* \"#utility.yul\":6058:6064   */\n      dup3\n        /* \"#utility.yul\":6053:6056   */\n      dup3\n        /* \"#utility.yul\":6046:6065   */\n      mstore\n        /* \"#utility.yul\":6098:6102   */\n      0x20\n        /* \"#utility.yul\":6093:6096   */\n      dup3\n        /* \"#utility.yul\":6089:6103   */\n      add\n        /* \"#utility.yul\":6074:6103   */\n      swap1\n      pop\n        /* \"#utility.yul\":6036:6109   */\n      swap3\n      swap2\n      pop\n      pop\n      jump\t// out\n        /* \"#utility.yul\":6115:6211   */\n    tag_101:\n      0x00\n        /* \"#utility.yul\":6181:6205   */\n      tag_145\n        /* \"#utility.yul\":6199:6204   */\n      dup3\n        /* \"#utility.yul\":6181:6205   */\n      tag_146\n      jump\t// in\n    tag_145:\n        /* \"#utility.yul\":6170:6205   */\n      swap1\n      pop\n        /* \"#utility.yul\":6160:6211   */\n      swap2\n      swap1\n      pop\n      jump\t// out\n        /* \"#utility.yul\":6217:6343   */\n    tag_146:\n      0x00\n        /* \"#utility.yul\":6294:6336   */\n      0xffffffffffffffffffffffffffffffffffffffff\n        /* \"#utility.yul\":6287:6292   */\n      dup3\n        /* \"#utility.yul\":6283:6337   */\n      and\n        /* \"#utility.yul\":6272:6337   */\n      swap1\n      pop\n        /* \"#utility.yul\":6262:6343   */\n      swap2\n      swap1\n      pop\n      jump\t// out\n        /* \"#utility.yul\":6349:6426   */\n    tag_121:\n      0x00\n        /* \"#utility.yul\":6415:6420   */\n      dup2\n        /* \"#utility.yul\":6404:6420   */\n      swap1\n      pop\n        /* \"#utility.yul\":6394:6426   */\n      swap2\n      swap1\n      pop\n      jump\t// out\n        /* \"#utility.yul\":6432:6586   */\n    tag_80:\n        /* \"#utility.yul\":6516:6522   */\n      dup3\n        /* \"#utility.yul\":6511:6514   */\n      dup2\n        /* \"#utility.yul\":6506:6509   */\n      dup4\n        /* \"#utility.yul\":6493:6523   */\n      calldatacopy\n        /* \"#utility.yul\":6578:6579   */\n      0x00\n        /* \"#utility.yul\":6569:6575   */\n      dup4\n        /* \"#utility.yul\":6564:6567   */\n      dup4\n        /* \"#utility.yul\":6560:6576   */\n      add\n        /* \"#utility.yul\":6553:6580   */\n      mstore\n        /* \"#utility.yul\":6483:6586   */\n      pop\n      pop\n      pop\n      jump\t// out\n        /* \"#utility.yul\":6592:6899   */\n    tag_109:\n        /* \"#utility.yul\":6660:6661   */\n      0x00\n        /* \"#utility.yul\":6670:6783   */\n    tag_151:\n        /* \"#utility.yul\":6684:6690   */\n      dup4\n        /* \"#utility.yul\":6681:6682   */\n      dup2\n        /* \"#utility.yul\":6678:6691   */\n      lt\n        /* \"#utility.yul\":6670:6783   */\n      iszero\n      tag_153\n      jumpi\n        /* \"#utility.yul\":6769:6770   */\n      dup1\n        /* \"#utility.yul\":6764:6767   */\n      dup3\n        /* \"#utility.yul\":6760:6771   */\n      add\n        /* \"#utility.yul\":6754:6772   */\n      mload\n        /* \"#utility.yul\":6750:6751   */\n      dup2\n        /* \"#utility.yul\":6745:6748   */\n      dup5\n        /* \"#utility.yul\":6741:6752   */\n      add\n        /* \"#utility.yul\":6734:6773   */\n      mstore\n        /* \"#utility.yul\":6706:6708   */\n      0x20\n        /* \"#utility.yul\":6703:6704   */\n      dup2\n        /* \"#utility.yul\":6699:6709   */\n      add\n        /* \"#utility.yul\":6694:6709   */\n      swap1\n      pop\n        /* \"#utility.yul\":6670:6783   */\n      jump(tag_151)\n    tag_153:\n        /* \"#utility.yul\":6801:6807   */\n      dup4\n        /* \"#utility.yul\":6798:6799   */\n      dup2\n        /* \"#utility.yul\":6795:6808   */\n      gt\n        /* \"#utility.yul\":6792:6794   */\n      iszero\n      tag_154\n      jumpi\n        /* \"#utility.yul\":6881:6882   */\n      0x00\n        /* \"#utility.yul\":6872:6878   */\n      dup5\n        /* \"#utility.yul\":6867:6870   */\n      dup5\n        /* \"#utility.yul\":6863:6879   */\n      add\n        /* \"#utility.yul\":6856:6883   */\n      mstore\n        /* \"#utility.yul\":6792:6794   */\n    tag_154:\n        /* \"#utility.yul\":6641:6899   */\n      pop\n      pop\n      pop\n      pop\n      jump\t// out\n        /* \"#utility.yul\":6905:7225   */\n    tag_41:\n      0x00\n        /* \"#utility.yul\":6986:6987   */\n      0x02\n        /* \"#utility.yul\":6980:6984   */\n      dup3\n        /* \"#utility.yul\":6976:6988   */\n      div\n        /* \"#utility.yul\":6966:6988   */\n      swap1\n      pop\n        /* \"#utility.yul\":7033:7034   */\n      0x01\n        /* \"#utility.yul\":7027:7031   */\n      dup3\n        /* \"#utility.yul\":7023:7035   */\n      and\n        /* \"#utility.yul\":7054:7072   */\n      dup1\n        /* \"#utility.yul\":7044:7046   */\n      tag_156\n      jumpi\n        /* \"#utility.yul\":7110:7114   */\n      0x7f\n        /* \"#utility.yul\":7102:7108   */\n      dup3\n        /* \"#utility.yul\":7098:7115   */\n      and\n        /* \"#utility.yul\":7088:7115   */\n      swap2\n      pop\n        /* \"#utility.yul\":7044:7046   */\n    tag_156:\n        /* \"#utility.yul\":7172:7174   */\n      0x20\n        /* \"#utility.yul\":7164:7170   */\n      dup3\n        /* \"#utility.yul\":7161:7175   */\n      lt\n        /* \"#utility.yul\":7141:7159   */\n      dup2\n        /* \"#utility.yul\":7138:7176   */\n      eq\n        /* \"#utility.yul\":7135:7137   */\n      iszero\n      tag_157\n      jumpi\n        /* \"#utility.yul\":7191:7209   */\n      tag_158\n      tag_159\n      jump\t// in\n    tag_158:\n        /* \"#utility.yul\":7135:7137   */\n    tag_157:\n        /* \"#utility.yul\":6956:7225   */\n      pop\n      swap2\n      swap1\n      pop\n      jump\t// out\n        /* \"#utility.yul\":7231:7464   */\n    tag_38:\n      0x00\n        /* \"#utility.yul\":7293:7317   */\n      tag_161\n        /* \"#utility.yul\":7311:7316   */\n      dup3\n        /* \"#utility.yul\":7293:7317   */\n      tag_121\n      jump\t// in\n    tag_161:\n        /* \"#utility.yul\":7284:7317   */\n      swap2\n      pop\n        /* \"#utility.yul\":7339:7405   */\n      0xffffffffffffffffffffffffffffffffffffffffffffffffffffffffffffffff\n        /* \"#utility.yul\":7332:7337   */\n      dup3\n        /* \"#utility.yul\":7329:7406   */\n      eq\n        /* \"#utility.yul\":7326:7328   */\n      iszero\n      tag_162\n      jumpi\n        /* \"#utility.yul\":7409:7427   */\n      tag_163\n      tag_164\n      jump\t// in\n    tag_163:\n        /* \"#utility.yul\":7326:7328   */\n    tag_162:\n        /* \"#utility.yul\":7456:7457   */\n      0x01\n        /* \"#utility.yul\":7449:7454   */\n      dup3\n        /* \"#utility.yul\":7445:7458   */\n      add\n        /* \"#utility.yul\":7438:7458   */\n      swap1\n      pop\n        /* \"#utility.yul\":7274:7464   */\n      swap2\n      swap1\n      pop\n      jump\t// out\n        /* \"#utility.yul\":7470:7650   */\n    tag_164:\n        /* \"#utility.yul\":7518:7595   */\n      0x4e487b7100000000000000000000000000000000000000000000000000000000\n        /* \"#utility.yul\":7515:7516   */\n      0x00\n        /* \"#utility.yul\":7508:7596   */\n      mstore\n        /* \"#utility.yul\":7615:7619   */\n      0x11\n        /* \"#utility.yul\":7612:7613   */\n      0x04\n        /* \"#utility.yul\":7605:7620   */\n      mstore\n        /* \"#utility.yul\":7639:7643   */\n      0x24\n        /* \"#utility.yul\":7636:7637   */\n      0x00\n        /* \"#utility.yul\":7629:7644   */\n      revert\n        /* \"#utility.yul\":7656:7836   */\n    tag_159:\n        /* \"#utility.yul\":7704:7781   */\n      0x4e487b7100000000000000000000000000000000000000000000000000000000\n        /* \"#utility.yul\":7701:7702   */\n      0x00\n        /* \"#utility.yul\":7694:7782   */\n      mstore\n        /* \"#utility.yul\":7801:7805   */\n      0x22\n        /* \"#utility.yul\":7798:7799   */\n      0x04\n        /* \"#utility.yul\":7791:7806   */\n      mstore\n        /* \"#utility.yul\":7825:7829   */\n      0x24\n        /* \"#utility.yul\":7822:7823   */\n      0x00\n        /* \"#utility.yul\":7815:7830   */\n      revert\n        /* \"#utility.yul\":7842:8022   */\n    tag_138:\n        /* \"#utility.yul\":7890:7967   */\n      0x4e487b7100000000000000000000000000000000000000000000000000000000\n        /* \"#utility.yul\":7887:7888   */\n      0x00\n        /* \"#utility.yul\":7880:7968   */\n      mstore\n        /* \"#utility.yul\":7987:7991   */\n      0x41\n        /* \"#utility.yul\":7984:7985   */\n      0x04\n        /* \"#utility.yul\":7977:7992   */\n      mstore\n        /* \"#utility.yul\":8011:8015   */\n      0x24\n        /* \"#utility.yul\":8008:8009   */\n      0x00\n        /* \"#utility.yul\":8001:8016   */\n      revert\n        /* \"#utility.yul\":8028:8130   */\n    tag_111:\n      0x00\n        /* \"#utility.yul\":8120:8122   */\n      0x1f\n        /* \"#utility.yul\":8116:8123   */\n      not\n        /* \"#utility.yul\":8111:8113   */\n      0x1f\n        /* \"#utility.yul\":8104:8109   */\n      dup4\n        /* \"#utility.yul\":8100:8114   */\n      add\n        /* \"#utility.yul\":8096:8124   */\n      and\n        /* \"#utility.yul\":8086:8124   */\n      swap1\n      pop\n        /* \"#utility.yul\":8076:8130   */\n      swap2\n      swap1\n      pop\n      jump\t// out\n        /* \"#utility.yul\":8136:8258   */\n    tag_88:\n        /* \"#utility.yul\":8209:8233   */\n      tag_170\n        /* \"#utility.yul\":8227:8232   */\n      dup2\n        /* \"#utility.yul\":8209:8233   */\n      tag_121\n      jump\t// in\n    tag_170:\n        /* \"#utility.yul\":8202:8207   */\n      dup2\n        /* \"#utility.yul\":8199:8234   */\n      eq\n        /* \"#utility.yul\":8189:8191   */\n      tag_171\n      jumpi\n        /* \"#utility.yul\":8248:8249   */\n      0x00\n        /* \"#utility.yul\":8245:8246   */\n      dup1\n        /* \"#utility.yul\":8238:8250   */\n      revert\n        /* \"#utility.yul\":8189:8191   */\n    tag_171:\n        /* \"#utility.yul\":8179:8258   */\n      pop\n      jump\t// out\n\n    auxdata: 0xa26469706673582212202ced07a11bf956f8b24bc6cfd58c623990918bc6366c45a0d1bb71539d79df2a64736f6c63430008000033\n}\n",
				"bytecode": {
					"linkReferences": {},
					"object": "608060405234801561001057600080fd5b50610b8f806100206000396000f3fe608060405234801561001057600080fd5b506004361061004c5760003560e01c8063720f0194146100515780638dd18d2d1461006d578063cd0e35b91461009f578063e0574e3f146100bd575b600080fd5b61006b600480360381019061006691906106eb565b6100ef565b005b61008760048036038101906100829190610757565b6102af565b6040516100969392919061088e565b60405180910390f35b6100a761046b565b6040516100b49190610913565b60405180910390f35b6100d760048036038101906100d29190610757565b610471565b6040516100e69392919061088e565b60405180910390f35b6000825111610133576040517f08c379a000000000000000000000000000000000000000000000000000000000815260040161012a906108d3565b60405180910390fd5b6000815111610177576040517f08c379a000000000000000000000000000000000000000000000000000000000815260040161016e906108f3565b60405180910390fd5b60405180606001604052808381526020018281526020013373ffffffffffffffffffffffffffffffffffffffff16815250600080600154815260200190815260200160002060008201518160000190805190602001906101d89291906105cb565b5060208201518160010190805190602001906101f59291906105cb565b5060408201518160020160006101000a81548173ffffffffffffffffffffffffffffffffffffffff021916908373ffffffffffffffffffffffffffffffffffffffff1602179055509050503373ffffffffffffffffffffffffffffffffffffffff166001547f02a1796e76849dec92af90888bf07569638328d6bf2b37fe6cab1e79cc29ce37848460405161028b929190610857565b60405180910390a3600160008154809291906102a690610a5b565b91905055505050565b6060806000806000808681526020019081526020016000206040518060600160405290816000820180546102e290610a29565b80601f016020809104026020016040519081016040528092919081815260200182805461030e90610a29565b801561035b5780601f106103305761010080835404028352916020019161035b565b820191906000526020600020905b81548152906001019060200180831161033e57829003601f168201915b5050505050815260200160018201805461037490610a29565b80601f01602080910402602001604051908101604052809291908181526020018280546103a090610a29565b80156103ed5780601f106103c2576101008083540402835291602001916103ed565b820191906000526020600020905b8154815290600101906020018083116103d057829003601f168201915b505050505081526020016002820160009054906101000a900473ffffffffffffffffffffffffffffffffffffffff1673ffffffffffffffffffffffffffffffffffffffff1673ffffffffffffffffffffffffffffffffffffffff16815250509050806000015181602001518260400151935093509350509193909250565b60015481565b600060205280600052604060002060009150905080600001805461049490610a29565b80601f01602080910402602001604051908101604052809291908181526020018280546104c090610a29565b801561050d5780601f106104e25761010080835404028352916020019161050d565b820191906000526020600020905b8154815290600101906020018083116104f057829003601f168201915b50505050509080600101805461052290610a29565b80601f016020809104026020016040519081016040528092919081815260200182805461054e90610a29565b801561059b5780601f106105705761010080835404028352916020019161059b565b820191906000526020600020905b81548152906001019060200180831161057e57829003601f168201915b5050505050908060020160009054906101000a900473ffffffffffffffffffffffffffffffffffffffff16905083565b8280546105d790610a29565b90600052602060002090601f0160209004810192826105f95760008555610640565b82601f1061061257805160ff1916838001178555610640565b82800160010185558215610640579182015b8281111561063f578251825591602001919060010190610624565b5b50905061064d9190610651565b5090565b5b8082111561066a576000816000905550600101610652565b5090565b600061068161067c8461095f565b61092e565b90508281526020810184848401111561069957600080fd5b6106a48482856109e7565b509392505050565b600082601f8301126106bd57600080fd5b81356106cd84826020860161066e565b91505092915050565b6000813590506106e581610b42565b92915050565b600080604083850312156106fe57600080fd5b600083013567ffffffffffffffff81111561071857600080fd5b610724858286016106ac565b925050602083013567ffffffffffffffff81111561074157600080fd5b61074d858286016106ac565b9150509250929050565b60006020828403121561076957600080fd5b6000610777848285016106d6565b91505092915050565b610789816109ab565b82525050565b600061079a8261098f565b6107a4818561099a565b93506107b48185602086016109f6565b6107bd81610b31565b840191505092915050565b60006107d5601a8361099a565b91507f496d61676520686173682063616e6e6f7420626520656d7074790000000000006000830152602082019050919050565b6000610815601a8361099a565b91507f43726564656e7469616c2063616e6e6f7420626520656d7074790000000000006000830152602082019050919050565b610851816109dd565b82525050565b60006040820190508181036000830152610871818561078f565b90508181036020830152610885818461078f565b90509392505050565b600060608201905081810360008301526108a8818661078f565b905081810360208301526108bc818561078f565b90506108cb6040830184610780565b949350505050565b600060208201905081810360008301526108ec816107c8565b9050919050565b6000602082019050818103600083015261090c81610808565b9050919050565b60006020820190506109286000830184610848565b92915050565b6000604051905081810181811067ffffffffffffffff8211171561095557610954610b02565b5b8060405250919050565b600067ffffffffffffffff82111561097a57610979610b02565b5b601f19601f8301169050602081019050919050565b600081519050919050565b600082825260208201905092915050565b60006109b6826109bd565b9050919050565b600073ffffffffffffffffffffffffffffffffffffffff82169050919050565b6000819050919050565b82818337600083830152505050565b60005b83811015610a145780820151818401526020810190506109f9565b83811115610a23576000848401525b50505050565b60006002820490506001821680610a4157607f821691505b60208210811415610a5557610a54610ad3565b5b50919050565b6000610a66826109dd565b91507fffffffffffffffffffffffffffffffffffffffffffffffffffffffffffffffff821415610a9957610a98610aa4565b5b600182019050919050565b7f4e487b7100000000000000000000000000000000000000000000000000000000600052601160045260246000fd5b7f4e487b7100000000000000000000000000000000000000000000000000000000600052602260045260246000fd5b7f4e487b7100000000000000000000000000000000000000000000000000000000600052604160045260246000fd5b6000601f19601f8301169050919050565b610b4b816109dd565b8114610b5657600080fd5b5056fea26469706673582212202ced07a11bf956f8b24bc6cfd58c623990918bc6366c45a0d1bb71539d79df2a64736f6c63430008000033",
					"opcodes": "PUSH1 0x80 PUSH1 0x40 MSTORE CALLVALUE DUP1 ISZERO PUSH2 0x10 JUMPI PUSH1 0x0 DUP1 REVERT JUMPDEST POP PUSH2 0xB8F DUP1 PUSH2 0x20 PUSH1 0x0 CODECOPY PUSH1 0x0 RETURN INVALID PUSH1 0x80 PUSH1 0x40 MSTORE CALLVALUE DUP1 ISZERO PUSH2 0x10 JUMPI PUSH1 0x0 DUP1 REVERT JUMPDEST POP PUSH1 0x4 CALLDATASIZE LT PUSH2 0x4C JUMPI PUSH1 0x0 CALLDATALOAD PUSH1 0xE0 SHR DUP1 PUSH4 0x720F0194 EQ PUSH2 0x51 JUMPI DUP1 PUSH4 0x8DD18D2D EQ PUSH2 0x6D JUMPI DUP1 PUSH4 0xCD0E35B9 EQ PUSH2 0x9F JUMPI DUP1 PUSH4 0xE0574E3F EQ PUSH2 0xBD JUMPI JUMPDEST PUSH1 0x0 DUP1 REVERT JUMPDEST PUSH2 0x6B PUSH1 0x4 DUP1 CALLDATASIZE SUB DUP2 ADD SWAP1 PUSH2 0x66 SWAP2 SWAP1 PUSH2 0x6EB JUMP JUMPDEST PUSH2 0xEF JUMP JUMPDEST STOP JUMPDEST PUSH2 0x87 PUSH1 0x4 DUP1 CALLDATASIZE SUB DUP2 ADD SWAP1 PUSH2 0x82 SWAP2 SWAP1 PUSH2 0x757 JUMP JUMPDEST PUSH2 0x2AF JUMP JUMPDEST PUSH1 0x40 MLOAD PUSH2 0x96 SWAP4 SWAP3 SWAP2 SWAP1 PUSH2 0x88E JUMP JUMPDEST PUSH1 0x40 MLOAD DUP1 SWAP2 SUB SWAP1 RETURN JUMPDEST PUSH2 0xA7 PUSH2 0x46B JUMP JUMPDEST PUSH1 0x40 MLOAD PUSH2 0xB4 SWAP2 SWAP1 PUSH2 0x913 JUMP JUMPDEST PUSH1 0x40 MLOAD DUP1 SWAP2 SUB SWAP1 RETURN JUMPDEST PUSH2 0xD7 PUSH1 0x4 DUP1 CALLDATASIZE SUB DUP2 ADD SWAP1 PUSH2 0xD2 SWAP2 SWAP1 PUSH2 0x757 JUMP JUMPDEST PUSH2 0x471 JUMP JUMPDEST PUSH1 0x40 MLOAD PUSH2 0xE6 SWAP4 SWAP3 SWAP2 SWAP1 PUSH2 0x88E JUMP JUMPDEST PUSH1 0x40 MLOAD DUP1 SWAP2 SUB SWAP1 RETURN JUMPDEST PUSH1 0x0 DUP3 MLOAD GT PUSH2 0x133 JUMPI PUSH1 0x40 MLOAD PUSH32 0x8C379A000000000000000000000000000000000000000000000000000000000 DUP2 MSTORE PUSH1 0x4 ADD PUSH2 0x12A SWAP1 PUSH2 0x8D3 JUMP JUMPDEST PUSH1 0x40 MLOAD DUP1 SWAP2 SUB SWAP1 REVERT JUMPDEST PUSH1 0x0 DUP2 MLOAD GT PUSH2 0x177 JUMPI PUSH1 0x40 MLOAD PUSH32 0x8C379A000000000000000000000000000000000000000000000000000000000 DUP2 MSTORE PUSH1 0x4 ADD PUSH2 0x16E SWAP1 PUSH2 0x8F3 JUMP JUMPDEST PUSH1 0x40 MLOAD DUP1 SWAP2 SUB SWAP1 REVERT JUMPDEST PUSH1 0x40 MLOAD DUP1 PUSH1 0x60 ADD PUSH1 0x40 MSTORE DUP1 DUP4 DUP2 MSTORE PUSH1 0x20 ADD DUP3 DUP2 MSTORE PUSH1 0x20 ADD CALLER PUSH20 0xFFFFFFFFFFFFFFFFFFFFFFFFFFFFFFFFFFFFFFFF AND DUP2 MSTORE POP PUSH1 0x0 DUP1 PUSH1 0x1 SLOAD DUP2 MSTORE PUSH1 0x20 ADD SWAP1 DUP2 MSTORE PUSH1 0x20 ADD PUSH1 0x0 KECCAK256 PUSH1 0x0 DUP3 ADD MLOAD DUP2 PUSH1 0x0 ADD SWAP1 DUP1 MLOAD SWAP1 PUSH1 0x20 ADD SWAP1 PUSH2 0x1D8 SWAP3 SWAP2 SWAP1 PUSH2 0x5CB JUMP JUMPDEST POP PUSH1 0x20 DUP3 ADD MLOAD DUP2 PUSH1 0x1 ADD SWAP1 DUP1 MLOAD SWAP1 PUSH1 0x20 ADD SWAP1 PUSH2 0x1F5 SWAP3 SWAP2 SWAP1 PUSH2 0x5CB JUMP JUMPDEST POP PUSH1 0x40 DUP3 ADD MLOAD DUP2 PUSH1 0x2 ADD PUSH1 0x0 PUSH2 0x100 EXP DUP2 SLOAD DUP2 PUSH20 0xFFFFFFFFFFFFFFFFFFFFFFFFFFFFFFFFFFFFFFFF MUL NOT AND SWAP1 DUP4 PUSH20 0xFFFFFFFFFFFFFFFFFFFFFFFFFFFFFFFFFFFFFFFF AND MUL OR SWAP1 SSTORE POP SWAP1 POP POP CALLER PUSH20 0xFFFFFFFFFFFFFFFFFFFFFFFFFFFFFFFFFFFFFFFF AND PUSH1 0x1 SLOAD PUSH32 0x2A1796E76849DEC92AF90888BF07569638328D6BF2B37FE6CAB1E79CC29CE37 DUP5 DUP5 PUSH1 0x40 MLOAD PUSH2 0x28B SWAP3 SWAP2 SWAP1 PUSH2 0x857 JUMP JUMPDEST PUSH1 0x40 MLOAD DUP1 SWAP2 SUB SWAP1 LOG3 PUSH1 0x1 PUSH1 0x0 DUP2 SLOAD DUP1 SWAP3 SWAP2 SWAP1 PUSH2 0x2A6 SWAP1 PUSH2 0xA5B JUMP JUMPDEST SWAP2 SWAP1 POP SSTORE POP POP POP JUMP JUMPDEST PUSH1 0x60 DUP1 PUSH1 0x0 DUP1 PUSH1 0x0 DUP1 DUP7 DUP2 MSTORE PUSH1 0x20 ADD SWAP1 DUP2 MSTORE PUSH1 0x20 ADD PUSH1 0x0 KECCAK256 PUSH1 0x40 MLOAD DUP1 PUSH1 0x60 ADD PUSH1 0x40 MSTORE SWAP1 DUP2 PUSH1 0x0 DUP3 ADD DUP1 SLOAD PUSH2 0x2E2 SWAP1 PUSH2 0xA29 JUMP JUMPDEST DUP1 PUSH1 0x1F ADD PUSH1 0x20 DUP1 SWAP2 DIV MUL PUSH1 0x20 ADD PUSH1 0x40 MLOAD SWAP1 DUP2 ADD PUSH1 0x40 MSTORE DUP1 SWAP3 SWAP2 SWAP1 DUP2 DUP2 MSTORE PUSH1 0x20 ADD DUP3 DUP1 SLOAD PUSH2 0x30E SWAP1 PUSH2 0xA29 JUMP JUMPDEST DUP1 ISZERO PUSH2 0x35B JUMPI DUP1 PUSH1 0x1F LT PUSH2 0x330 JUMPI PUSH2 0x100 DUP1 DUP4 SLOAD DIV MUL DUP4 MSTORE SWAP2 PUSH1 0x20 ADD SWAP2 PUSH2 0x35B JUMP JUMPDEST DUP3 ADD SWAP2 SWAP1 PUSH1 0x0 MSTORE PUSH1 0x20 PUSH1 0x0 KECCAK256 SWAP1 JUMPDEST DUP2 SLOAD DUP2 MSTORE SWAP1 PUSH1 0x1 ADD SWAP1 PUSH1 0x20 ADD DUP1 DUP4 GT PUSH2 0x33E JUMPI DUP3 SWAP1 SUB PUSH1 0x1F AND DUP3 ADD SWAP2 JUMPDEST POP POP POP POP POP DUP2 MSTORE PUSH1 0x20 ADD PUSH1 0x1 DUP3 ADD DUP1 SLOAD PUSH2 0x374 SWAP1 PUSH2 0xA29 JUMP JUMPDEST DUP1 PUSH1 0x1F ADD PUSH1 0x20 DUP1 SWAP2 DIV MUL PUSH1 0x20 ADD PUSH1 0x40 MLOAD SWAP1 DUP2 ADD PUSH1 0x40 MSTORE DUP1 SWAP3 SWAP2 SWAP1 DUP2 DUP2 MSTORE PUSH1 0x20 ADD DUP3 DUP1 SLOAD PUSH2 0x3A0 SWAP1 PUSH2 0xA29 JUMP JUMPDEST DUP1 ISZERO PUSH2 0x3ED JUMPI DUP1 PUSH1 0x1F LT PUSH2 0x3C2 JUMPI PUSH2 0x100 DUP1 DUP4 SLOAD DIV MUL DUP4 MSTORE SWAP2 PUSH1 0x20 ADD SWAP2 PUSH2 0x3ED JUMP JUMPDEST DUP3 ADD SWAP2 SWAP1 PUSH1 0x0 MSTORE PUSH1 0x20 PUSH1 0x0 KECCAK256 SWAP1 JUMPDEST DUP2 SLOAD DUP2 MSTORE SWAP1 PUSH1 0x1 ADD SWAP1 PUSH1 0x20 ADD DUP1 DUP4 GT PUSH2 0x3D0 JUMPI DUP3 SWAP1 SUB PUSH1 0x1F AND DUP3 ADD SWAP2 JUMPDEST POP POP POP POP POP DUP2 MSTORE PUSH1 0x20 ADD PUSH1 0x2 DUP3 ADD PUSH1 0x0 SWAP1 SLOAD SWAP1 PUSH2 0x100 EXP SWAP1 DIV PUSH20 0xFFFFFFFFFFFFFFFFFFFFFFFFFFFFFFFFFFFFFFFF AND PUSH20 0xFFFFFFFFFFFFFFFFFFFFFFFFFFFFFFFFFFFFFFFF AND PUSH20 0xFFFFFFFFFFFFFFFFFFFFFFFFFFFFFFFFFFFFFFFF AND DUP2 MSTORE POP POP SWAP1 POP DUP1 PUSH1 0x0 ADD MLOAD DUP2 PUSH1 0x20 ADD MLOAD DUP3 PUSH1 0x40 ADD MLOAD SWAP4 POP SWAP4 POP SWAP4 POP POP SWAP2 SWAP4 SWAP1 SWAP3 POP JUMP JUMPDEST PUSH1 0x1 SLOAD DUP2 JUMP JUMPDEST PUSH1 0x0 PUSH1 0x20 MSTORE DUP1 PUSH1 0x0 MSTORE PUSH1 0x40 PUSH1 0x0 KECCAK256 PUSH1 0x0 SWAP2 POP SWAP1 POP DUP1 PUSH1 0x0 ADD DUP1 SLOAD PUSH2 0x494 SWAP1 PUSH2 0xA29 JUMP JUMPDEST DUP1 PUSH1 0x1F ADD PUSH1 0x20 DUP1 SWAP2 DIV MUL PUSH1 0x20 ADD PUSH1 0x40 MLOAD SWAP1 DUP2 ADD PUSH1 0x40 MSTORE DUP1 SWAP3 SWAP2 SWAP1 DUP2 DUP2 MSTORE PUSH1 0x20 ADD DUP3 DUP1 SLOAD PUSH2 0x4C0 SWAP1 PUSH2 0xA29 JUMP JUMPDEST DUP1 ISZERO PUSH2 0x50D JUMPI DUP1 PUSH1 0x1F LT PUSH2 0x4E2 JUMPI PUSH2 0x100 DUP1 DUP4 SLOAD DIV MUL DUP4 MSTORE SWAP2 PUSH1 0x20 ADD SWAP2 PUSH2 0x50D JUMP JUMPDEST DUP3 ADD SWAP2 SWAP1 PUSH1 0x0 MSTORE PUSH1 0x20 PUSH1 0x0 KECCAK256 SWAP1 JUMPDEST DUP2 SLOAD DUP2 MSTORE SWAP1 PUSH1 0x1 ADD SWAP1 PUSH1 0x20 ADD DUP1 DUP4 GT PUSH2 0x4F0 JUMPI DUP3 SWAP1 SUB PUSH1 0x1F AND DUP3 ADD SWAP2 JUMPDEST POP POP POP POP POP SWAP1 DUP1 PUSH1 0x1 ADD DUP1 SLOAD PUSH2 0x522 SWAP1 PUSH2 0xA29 JUMP JUMPDEST DUP1 PUSH1 0x1F ADD PUSH1 0x20 DUP1 SWAP2 DIV MUL PUSH1 0x20 ADD PUSH1 0x40 MLOAD SWAP1 DUP2 ADD PUSH1 0x40 MSTORE DUP1 SWAP3 SWAP2 SWAP1 DUP2 DUP2 MSTORE PUSH1 0x20 ADD DUP3 DUP1 SLOAD PUSH2 0x54E SWAP1 PUSH2 0xA29 JUMP JUMPDEST DUP1 ISZERO PUSH2 0x59B JUMPI DUP1 PUSH1 0x1F LT PUSH2 0x570 JUMPI PUSH2 0x100 DUP1 DUP4 SLOAD DIV MUL DUP4 MSTORE SWAP2 PUSH1 0x20 ADD SWAP2 PUSH2 0x59B JUMP JUMPDEST DUP3 ADD SWAP2 SWAP1 PUSH1 0x0 MSTORE PUSH1 0x20 PUSH1 0x0 KECCAK256 SWAP1 JUMPDEST DUP2 SLOAD DUP2 MSTORE SWAP1 PUSH1 0x1 ADD SWAP1 PUSH1 0x20 ADD DUP1 DUP4 GT PUSH2 0x57E JUMPI DUP3 SWAP1 SUB PUSH1 0x1F AND DUP3 ADD SWAP2 JUMPDEST POP POP POP POP POP SWAP1 DUP1 PUSH1 0x2 ADD PUSH1 0x0 SWAP1 SLOAD SWAP1 PUSH2 0x100 EXP SWAP1 DIV PUSH20 0xFFFFFFFFFFFFFFFFFFFFFFFFFFFFFFFFFFFFFFFF AND SWAP1 POP DUP4 JUMP JUMPDEST DUP3 DUP1 SLOAD PUSH2 0x5D7 SWAP1 PUSH2 0xA29 JUMP JUMPDEST SWAP1 PUSH1 0x0 MSTORE PUSH1 0x20 PUSH1 0x0 KECCAK256 SWAP1 PUSH1 0x1F ADD PUSH1 0x20 SWAP1 DIV DUP2 ADD SWAP3 DUP3 PUSH2 0x5F9 JUMPI PUSH1 0x0 DUP6 SSTORE PUSH2 0x640 JUMP JUMPDEST DUP3 PUSH1 0x1F LT PUSH2 0x612 JUMPI DUP1 MLOAD PUSH1 0xFF NOT AND DUP4 DUP1 ADD OR DUP6 SSTORE PUSH2 0x640 JUMP JUMPDEST DUP3 DUP1 ADD PUSH1 0x1 ADD DUP6 SSTORE DUP3 ISZERO PUSH2 0x640 JUMPI SWAP2 DUP3 ADD JUMPDEST DUP3 DUP2 GT ISZERO PUSH2 0x63F JUMPI DUP3 MLOAD DUP3 SSTORE SWAP2 PUSH1 0x20 ADD SWAP2 SWAP1 PUSH1 0x1 ADD SWAP1 PUSH2 0x624 JUMP JUMPDEST JUMPDEST POP SWAP1 POP PUSH2 0x64D SWAP2 SWAP1 PUSH2 0x651 JUMP JUMPDEST POP SWAP1 JUMP JUMPDEST JUMPDEST DUP1 DUP3 GT ISZERO PUSH2 0x66A JUMPI PUSH1 0x0 DUP2 PUSH1 0x0 SWAP1 SSTORE POP PUSH1 0x1 ADD PUSH2 0x652 JUMP JUMPDEST POP SWAP1 JUMP JUMPDEST PUSH1 0x0 PUSH2 0x681 PUSH2 0x67C DUP5 PUSH2 0x95F JUMP JUMPDEST PUSH2 0x92E JUMP JUMPDEST SWAP1 POP DUP3 DUP2 MSTORE PUSH1 0x20 DUP2 ADD DUP5 DUP5 DUP5 ADD GT ISZERO PUSH2 0x699 JUMPI PUSH1 0x0 DUP1 REVERT JUMPDEST PUSH2 0x6A4 DUP5 DUP3 DUP6 PUSH2 0x9E7 JUMP JUMPDEST POP SWAP4 SWAP3 POP POP POP JUMP JUMPDEST PUSH1 0x0 DUP3 PUSH1 0x1F DUP4 ADD SLT PUSH2 0x6BD JUMPI PUSH1 0x0 DUP1 REVERT JUMPDEST DUP2 CALLDATALOAD PUSH2 0x6CD DUP5 DUP3 PUSH1 0x20 DUP7 ADD PUSH2 0x66E JUMP JUMPDEST SWAP2 POP POP SWAP3 SWAP2 POP POP JUMP JUMPDEST PUSH1 0x0 DUP2 CALLDATALOAD SWAP1 POP PUSH2 0x6E5 DUP2 PUSH2 0xB42 JUMP JUMPDEST SWAP3 SWAP2 POP POP JUMP JUMPDEST PUSH1 0x0 DUP1 PUSH1 0x40 DUP4 DUP6 SUB SLT ISZERO PUSH2 0x6FE JUMPI PUSH1 0x0 DUP1 REVERT JUMPDEST PUSH1 0x0 DUP4 ADD CALLDATALOAD PUSH8 0xFFFFFFFFFFFFFFFF DUP2 GT ISZERO PUSH2 0x718 JUMPI PUSH1 0x0 DUP1 REVERT JUMPDEST PUSH2 0x724 DUP6 DUP3 DUP7 ADD PUSH2 0x6AC JUMP JUMPDEST SWAP3 POP POP PUSH1 0x20 DUP4 ADD CALLDATALOAD PUSH8 0xFFFFFFFFFFFFFFFF DUP2 GT ISZERO PUSH2 0x741 JUMPI PUSH1 0x0 DUP1 REVERT JUMPDEST PUSH2 0x74D DUP6 DUP3 DUP7 ADD PUSH2 0x6AC JUMP JUMPDEST SWAP2 POP POP SWAP3 POP SWAP3 SWAP1 POP JUMP JUMPDEST PUSH1 0x0 PUSH1 0x20 DUP3 DUP5 SUB SLT ISZERO PUSH2 0x769 JUMPI PUSH1 0x0 DUP1 REVERT JUMPDEST PUSH1 0x0 PUSH2 0x777 DUP5 DUP3 DUP6 ADD PUSH2 0x6D6 JUMP JUMPDEST SWAP2 POP POP SWAP3 SWAP2 POP POP JUMP JUMPDEST PUSH2 0x789 DUP2 PUSH2 0x9AB JUMP JUMPDEST DUP3 MSTORE POP POP JUMP JUMPDEST PUSH1 0x0 PUSH2 0x79A DUP3 PUSH2 0x98F JUMP JUMPDEST PUSH2 0x7A4 DUP2 DUP6 PUSH2 0x99A JUMP JUMPDEST SWAP4 POP PUSH2 0x7B4 DUP2 DUP6 PUSH1 0x20 DUP7 ADD PUSH2 0x9F6 JUMP JUMPDEST PUSH2 0x7BD DUP2 PUSH2 0xB31 JUMP JUMPDEST DUP5 ADD SWAP2 POP POP SWAP3 SWAP2 POP POP JUMP JUMPDEST PUSH1 0x0 PUSH2 0x7D5 PUSH1 0x1A DUP4 PUSH2 0x99A JUMP JUMPDEST SWAP2 POP PUSH32 0x496D61676520686173682063616E6E6F7420626520656D707479000000000000 PUSH1 0x0 DUP4 ADD MSTORE PUSH1 0x20 DUP3 ADD SWAP1 POP SWAP2 SWAP1 POP JUMP JUMPDEST PUSH1 0x0 PUSH2 0x815 PUSH1 0x1A DUP4 PUSH2 0x99A JUMP JUMPDEST SWAP2 POP PUSH32 0x43726564656E7469616C2063616E6E6F7420626520656D707479000000000000 PUSH1 0x0 DUP4 ADD MSTORE PUSH1 0x20 DUP3 ADD SWAP1 POP SWAP2 SWAP1 POP JUMP JUMPDEST PUSH2 0x851 DUP2 PUSH2 0x9DD JUMP JUMPDEST DUP3 MSTORE POP POP JUMP JUMPDEST PUSH1 0x0 PUSH1 0x40 DUP3 ADD SWAP1 POP DUP2 DUP2 SUB PUSH1 0x0 DUP4 ADD MSTORE PUSH2 0x871 DUP2 DUP6 PUSH2 0x78F JUMP JUMPDEST SWAP1 POP DUP2 DUP2 SUB PUSH1 0x20 DUP4 ADD MSTORE PUSH2 0x885 DUP2 DUP5 PUSH2 0x78F JUMP JUMPDEST SWAP1 POP SWAP4 SWAP3 POP POP POP JUMP JUMPDEST PUSH1 0x0 PUSH1 0x60 DUP3 ADD SWAP1 POP DUP2 DUP2 SUB PUSH1 0x0 DUP4 ADD MSTORE PUSH2 0x8A8 DUP2 DUP7 PUSH2 0x78F JUMP JUMPDEST SWAP1 POP DUP2 DUP2 SUB PUSH1 0x20 DUP4 ADD MSTORE PUSH2 0x8BC DUP2 DUP6 PUSH2 0x78F JUMP JUMPDEST SWAP1 POP PUSH2 0x8CB PUSH1 0x40 DUP4 ADD DUP5 PUSH2 0x780 JUMP JUMPDEST SWAP5 SWAP4 POP POP POP POP JUMP JUMPDEST PUSH1 0x0 PUSH1 0x20 DUP3 ADD SWAP1 POP DUP2 DUP2 SUB PUSH1 0x0 DUP4 ADD MSTORE PUSH2 0x8EC DUP2 PUSH2 0x7C8 JUMP JUMPDEST SWAP1 POP SWAP2 SWAP1 POP JUMP JUMPDEST PUSH1 0x0 PUSH1 0x20 DUP3 ADD SWAP1 POP DUP2 DUP2 SUB PUSH1 0x0 DUP4 ADD MSTORE PUSH2 0x90C DUP2 PUSH2 0x808 JUMP JUMPDEST SWAP1 POP SWAP2 SWAP1 POP JUMP JUMPDEST PUSH1 0x0 PUSH1 0x20 DUP3 ADD SWAP1 POP PUSH2 0x928 PUSH1 0x0 DUP4 ADD DUP5 PUSH2 0x848 JUMP JUMPDEST SWAP3 SWAP2 POP POP JUMP JUMPDEST PUSH1 0x0 PUSH1 0x40 MLOAD SWAP1 POP DUP2 DUP2 ADD DUP2 DUP2 LT PUSH8 0xFFFFFFFFFFFFFFFF DUP3 GT OR ISZERO PUSH2 0x955 JUMPI PUSH2 0x954 PUSH2 0xB02 JUMP JUMPDEST JUMPDEST DUP1 PUSH1 0x40 MSTORE POP SWAP2 SWAP1 POP JUMP JUMPDEST PUSH1 0x0 PUSH8 0xFFFFFFFFFFFFFFFF DUP3 GT ISZERO PUSH2 0x97A JUMPI PUSH2 0x979 PUSH2 0xB02 JUMP JUMPDEST JUMPDEST PUSH1 0x1F NOT PUSH1 0x1F DUP4 ADD AND SWAP1 POP PUSH1 0x20 DUP2 ADD SWAP1 POP SWAP2 SWAP1 POP JUMP JUMPDEST PUSH1 0x0 DUP2 MLOAD SWAP1 POP SWAP2 SWAP1 POP JUMP JUMPDEST PUSH1 0x0 DUP3 DUP3 MSTORE PUSH1 0x20 DUP3 ADD SWAP1 POP SWAP3 SWAP2 POP POP JUMP JUMPDEST PUSH1 0x0 PUSH2 0x9B6 DUP3 PUSH2 0x9BD JUMP JUMPDEST SWAP1 POP SWAP2 SWAP1 POP JUMP JUMPDEST PUSH1 0x0 PUSH20 0xFFFFFFFFFFFFFFFFFFFFFFFFFFFFFFFFFFFFFFFF DUP3 AND SWAP1 POP SWAP2 SWAP1 POP JUMP JUMPDEST PUSH1 0x0 DUP2 SWAP1 POP SWAP2 SWAP1 POP JUMP JUMPDEST DUP3 DUP2 DUP4 CALLDATACOPY PUSH1 0x0 DUP4 DUP4 ADD MSTORE POP POP POP JUMP JUMPDEST PUSH1 0x0 JUMPDEST DUP4 DUP2 LT ISZERO PUSH2 0xA14 JUMPI DUP1 DUP3 ADD MLOAD DUP2 DUP5 ADD MSTORE PUSH1 0x20 DUP2 ADD SWAP1 POP PUSH2 0x9F9 JUMP JUMPDEST DUP4 DUP2 GT ISZERO PUSH2 0xA23 JUMPI PUSH1 0x0 DUP5 DUP5 ADD MSTORE JUMPDEST POP POP POP POP JUMP JUMPDEST PUSH1 0x0 PUSH1 0x2 DUP3 DIV SWAP1 POP PUSH1 0x1 DUP3 AND DUP1 PUSH2 0xA41 JUMPI PUSH1 0x7F DUP3 AND SWAP2 POP JUMPDEST PUSH1 0x20 DUP3 LT DUP2 EQ ISZERO PUSH2 0xA55 JUMPI PUSH2 0xA54 PUSH2 0xAD3 JUMP JUMPDEST JUMPDEST POP SWAP2 SWAP1 POP JUMP JUMPDEST PUSH1 0x0 PUSH2 0xA66 DUP3 PUSH2 0x9DD JUMP JUMPDEST SWAP2 POP PUSH32 0xFFFFFFFFFFFFFFFFFFFFFFFFFFFFFFFFFFFFFFFFFFFFFFFFFFFFFFFFFFFFFFFF DUP3 EQ ISZERO PUSH2 0xA99 JUMPI PUSH2 0xA98 PUSH2 0xAA4 JUMP JUMPDEST JUMPDEST PUSH1 0x1 DUP3 ADD SWAP1 POP SWAP2 SWAP1 POP JUMP JUMPDEST PUSH32 0x4E487B7100000000000000000000000000000000000000000000000000000000 PUSH1 0x0 MSTORE PUSH1 0x11 PUSH1 0x4 MSTORE PUSH1 0x24 PUSH1 0x0 REVERT JUMPDEST PUSH32 0x4E487B7100000000000000000000000000000000000000000000000000000000 PUSH1 0x0 MSTORE PUSH1 0x22 PUSH1 0x4 MSTORE PUSH1 0x24 PUSH1 0x0 REVERT JUMPDEST PUSH32 0x4E487B7100000000000000000000000000000000000000000000000000000000 PUSH1 0x0 MSTORE PUSH1 0x41 PUSH1 0x4 MSTORE PUSH1 0x24 PUSH1 0x0 REVERT JUMPDEST PUSH1 0x0 PUSH1 0x1F NOT PUSH1 0x1F DUP4 ADD AND SWAP1 POP SWAP2 SWAP1 POP JUMP JUMPDEST PUSH2 0xB4B DUP2 PUSH2 0x9DD JUMP JUMPDEST DUP2 EQ PUSH2 0xB56 JUMPI PUSH1 0x0 DUP1 REVERT JUMPDEST POP JUMP INVALID LOG2 PUSH5 0x6970667358 0x22 SLT KECCAK256 0x2C 0xED SMOD LOG1 SHL 0xF9 JUMP 0xF8 0xB2 0x4B 0xC6 0xCF 0xD5 DUP13 PUSH3 0x399091 DUP12 0xC6 CALLDATASIZE PUSH13 0x45A0D1BB71539D79DF2A64736F PUSH13 0x63430008000033000000000000 "
				},
				"gasEstimates": {
					"creation": {
						"codeDepositCost": "591800",
						"executionCost": "625",
						"totalCost": "592425"
					},
					"external": {
						"credentialCount()": "1151",
						"credentials(uint256)": "infinite",
						"getCredential(uint256)": "infinite",
						"storeCredential(string,string)": "infinite"
					}
				},
				"methodIdentifiers": {
					"credentialCount()": "cd0e35b9",
					"credentials(uint256)": "e0574e3f",
					"getCredential(uint256)": "8dd18d2d",
					"storeCredential(string,string)": "720f0194"
				}
			},
			"storageLayout": {
				"storage": [
					{
						"astId": 13,
						"contract": "BlockCred.sol:FaceBlock",
						"label": "credentials",
						"offset": 0,
						"slot": "0",
						"type": "t_mapping(t_uint256,t_struct(Credential)8_storage)"
					},
					{
						"astId": 15,
						"contract": "BlockCred.sol:FaceBlock",
						"label": "credentialCount",
						"offset": 0,
						"slot": "1",
						"type": "t_uint256"
					}
				],
				"types": {
					"t_address": {
						"encoding": "inplace",
						"label": "address",
						"numberOfBytes": "20"
					},
					"t_mapping(t_uint256,t_struct(Credential)8_storage)": {
						"encoding": "mapping",
						"key": "t_uint256",
						"label": "mapping(uint256 => struct FaceBlock.Credential)",
						"numberOfBytes": "32",
						"value": "t_struct(Credential)8_storage"
					},
					"t_string_storage": {
						"encoding": "bytes",
						"label": "string",
						"numberOfBytes": "32"
					},
					"t_struct(Credential)8_storage": {
						"encoding": "inplace",
						"label": "struct FaceBlock.Credential",
						"members": [
							{
								"astId": 3,
								"contract": "BlockCred.sol:FaceBlock",
								"label": "imageHash",
								"offset": 0,
								"slot": "0",
								"type": "t_string_storage"
							},
							{
								"astId": 5,
								"contract": "BlockCred.sol:FaceBlock",
								"label": "credential",
								"offset": 0,
								"slot": "1",
								"type": "t_string_storage"
							},
							{
								"astId": 7,
								"contract": "BlockCred.sol:FaceBlock",
								"label": "owner",
								"offset": 0,
								"slot": "2",
								"type": "t_address"
							}
						],
						"numberOfBytes": "96"
					},
					"t_uint256": {
						"encoding": "inplace",
						"label": "uint256",
						"numberOfBytes": "32"
					}
				}
			},
			"userdoc": {
				"kind": "user",
				"methods": {},
				"version": 1
			}
		}
	}
}